:1000000000000320D101000049A3000001A300006B
:1000100001A3000001A3000001A3000001A3000050
:1000200001A3000001A3000001A3000049A30000F8
:1000300049A3000001A30000819A0000859A0000F6
:1000400049A3000049A3000049A3000049A3000000
:1000500049A3000049A3000049A3000049A30000F0
:1000600049A3000049A3000049A3000049A30000E0
:1000700049A3000049A3000049A3000049A30000D0
:1000800049A3000049A3000049A3000049A30000C0
:1000900049A3000049A3000049A3000049A30000B0
:1000A000494100005541000049A3000049A3000058
:1000B00049A3000049A3000049A30000A5B5000022
:1000C00049A3000049A3000049A3000049A3000080
:1000D00049A3000049A3000049A3000049A3000070
:1000E00049A3000049A3000049A3000049A3000060
:1000F00049A3000049A3000049A3000049A3000050
:1001000049A3000049A3000049A3000049A300003F
:1001100049A3000069B8000049A3000049A30000FA
:1001200049A3000049A3000049A3000049A300001F
:1001300049A3000049A3000049A3000049A300000F
:1001400049A3000049A3000049A3000049A30000FF
:1001500049A3000049A3000049A3000049A30000EF
:1001600049A3000049A300006141000049A3000029
:1001700049A3000049A3000049A3000049A30000CF
:1001800049A3000049A3000049A3000049A30000BF
:1001900049A3000049A3000049A3000049A30000AF
:1001A00049A3000049A3000049A3000049A300009F
:1001B00049A3000049A3000049A3000049A300008F
:1001C00049A3000049A3000049A3000049A300007F
:1001D0005C4B4CF2205210B51A804DF628121A8052
:1001E00000BF00BF0AF0B4F8574B4FF030621A60FE
:1001F000564A9A60564ADA60564B4FF470021A60BB
:10020000554B564A1A60564B1A78110703D51A787F
:1002100042F008021A70534B5349AA221A70534AEB
:10022000534B8B4204D252F8040F43F8040BF8E707
:10023000504B514900228B4202D243F8042BFAE77B
:100240004E494F4A002352F8230041F8230001335E
:10025000742BF8D14B4B4C4A802103F8011B93427D
:10026000FBD14A4B454A1A60494B8A221A70A3F5C2
:10027000805324225A70A0221A709A799207FCD5D2
:100280009A79D406FCD4434A937903F00C03082BE3
:10029000FAD1414B60221A7002331A78802AFCD1BD
:1002A0003C4B01221A715D225A719A799006FCD555
:1002B0009979384A4906FBD5384B394919600021EC
:1002C000596020231370937903F00C030C2BFAD19F
:1002D000344B354A1A60354A354C136813F4807331
:1002E00003D123604FF4A8531360324B324A1A6093
:1002F00000225A60072243F8042C304AC3F80C2D20
:1003000062B60AF01DFD2368DA0705D52C480AF00D
:10031000D5FA2C4B2C4A1A602C4B1B785B0609D55E
:10032000284C294B22689A4204D125480AF0C6FA83
:10033000002323600DF060FA0AF010F809F03EFF88
:10034000FEE700BF0E20054030800440823F0400DD
:100350000100002B88ED00E0002008E0030000858C
:1003600002D0074000E007406813FF1F6817010034
:100370003007FF1F6813FF1F901BFF1F0002FF1FA6
:100380000000000000E400E064E400E008ED00E0AC
:10039000005006400040064001E007404480044011
:1003A0000000060204800440C010070010D0034083
:1003B00014D0034014E000E01FBF02000000202022
:1003C0002D1CEA5F1CE00340A5C3945A00F00740CF
:1003D000FFFFFFFFFFFFFFFFFFFFFFFFFFFFFFFF2D
:1003E000FFFFFFFFFFFFFFFFFFFFFFFFFFFFFFFF1D
:1003F000FFFFFFFFFFFFFFFFFFFFFFFFFFFFFFFF0D
:10040000FFFFFFFFFFFFFFFFFFFFFFFFDEF9FFFF23
:1004100010B5054C237833B9044B13B10448AFF33E
:1004200000800123237010BD6813FF1F000000002F
:1004300064170100084B10B51BB108490848AFF319
:1004400000800848036803B910BD074B002BFBD0A0
:10045000BDE81040184700BF000000006C13FF1FEC
:10046000641701006813FF1F0000000000207047A0
:1004700008B517210A480CF085F80A4809F0CCFBAA
:1004800000211D200AF0CCFB32200AF007FC1D20C1
:1004900001210AF0C5FB6420BDE808400AF0FEBB5C
:1004A0008C0501000009FF1F70B5574B574D1A8886
:1004B000574E584C88B02846002104F063FE564B36
:1004C00028461A88052104F05DFE544B28461A88F8
:1004D0000A2104F057FE524B28461A880F2104F0D7
:1004E00051FE2F2130460CF04DF8204609F094FBC8
:1004F00022214C480CF046F8204609F08DFB04A858
:10050000494909F021FC2846002104F037FE0A225F
:100510000146684609F05EFC694604A809F00AFD38
:100520000146204609F052FB204609F075FB68465B
:1005300009F0CAFB04A809F0C7FB04A83B4909F06D
:1005400003FC2846052104F019FE0A2201466846EC
:1005500009F040FC694604A809F0ECFC014620467D
:1005600009F034FB204609F057FB684609F0ACFB64
:1005700004A809F0A9FB04A82D4909F0E5FB2846C9
:100580000A2104F0FBFD0A220146684609F022FC1C
:10059000694604A809F0CEFC0146204609F016FB86
:1005A000204609F039FB684609F08EFB04A809F0E3
:1005B0008BFB04A81F4909F0C7FB28460F2104F054
:1005C000DDFD0A220146684609F004FC694604A8DC
:1005D00009F0B0FC0146204609F0F8FA204609F07F
:1005E0001BFB684609F070FB04A809F06DFB2F2186
:1005F00030460BF0C7FF204609F00EFB0E4B0022E1
:100600001A7008B070BD00BF4407FF1F1019FF1F0C
:10061000A40501000009FF1F4607FF1F4C07FF1F2D
:100620004E07FF1FD40501006C0701008007010081
:1006300094070100A80701001C15FF1F70B5574B58
:10064000574D1A88574E584C88B02846142104F04C
:1006500099FD564B28461A88192104F093FD544BF6
:1006600028461A881E2104F08DFD524B28461A8810
:10067000232104F087FD2F2130460BF083FF204615
:1006800009F0CAFA21214C480BF07CFF204609F002
:10069000C3FA04A8494909F057FB2846142104F07D
:1006A0006DFD0A220146684609F094FB694604A8DC
:1006B00009F040FC0146204609F088FA204609F07E
:1006C000ABFA684609F000FB04A809F0FDFA04A89B
:1006D0003B4909F039FB2846192104F04FFD0A2255
:1006E0000146684609F076FB694604A809F022FC39
:1006F0000146204609F06AFA204609F08DFA68465C
:1007000009F0E2FA04A809F0DFFA04A82D4909F07B
:100710001BFB28461E2104F031FD0A2201466846D3
:1007200009F058FB694604A809F004FC014620467C
:1007300009F04CFA204609F06FFA684609F0C4FA4D
:1007400004A809F0C1FA04A81F4909F0FDFA2846D7
:10075000232104F013FD0A220146684609F03AFB02
:10076000694604A809F0E6FB0146204609F02EFA86
:10077000204609F051FA684609F0A6FA04A809F0E3
:10078000A3FA2F2130460BF0FDFE204609F044FA73
:100790000E4B00221A7008B070BD00BF5807FF1F33
:1007A0001019FF1FA40501000009FF1F3A07FF1FD2
:1007B0003E07FF1F5007FF1FF80501001C06010040
:1007C000340601004806010060060100D118FF1F31
:1007D0002DE9F04F1C2189B001480BF0D3FE08E051
:1007E00074060100B4480BF0CDFE40F6B8300AF0B4
:1007F00055FAB24BB249B34800241A46009407F0A8
:10080000C3FF01210028EDD04FF47A700AF046FAB8
:10081000B7EE000A022104A809F0F0FA049A039244
:1008200010460DF0EDFFA84B01941968039A00944F
:100830000346A448DFF8D4B2DFF8D4A2DFF8D4929C
:10084000DFF8D482A14FA24EA24D07F053FF04A8B7
:1008500009F03AFAA04B04A819880A2209F0BAFA5A
:10086000049A039210460DF0CBFF9C4B019419683B
:10087000039A00940346934807F03CFF04A809F04C
:1008800023FABBF8001004A80A2209F0A3FA049A7C
:10089000039210460DF0B4FFDAF80010039A0194A9
:1008A00003460094874807F025FF04A809F00CFAD6
:1008B000B9F8001004A80A2209F08CFA049A0392ED
:1008C00010460DF09DFFD8F80010039A01940346DE
:1008D00000947C4807F00EFF04A809F0F5F9398868
:1008E00004A80A2209F076FA049A039210460DF041
:1008F00087FF3168039A019403460094714807F01A
:10090000F9FE04A809F0E0F9754B04A819880A2239
:1009100009F060FA049A039210460DF071FF2968FD
:10092000039A019403460094664807F0E3FE04A886
:1009300009F0CAF96B4B04A819780A2209F04AFA9F
:10094000049A039210460DF05BFF674B01941968FF
:10095000039A009403465B4807F0CCFE04A809F014
:10096000B3F9BBF800100A2204A809F033FADDF845
:1009700010B058460DF044FFDAF800100194034619
:100980005A4600944F4807F0B5FE04A809F09CF9B8
:10099000B9F800100A2204A809F01CFADDF810903A
:1009A00048460DF02DFFD8F80010019403464A4642
:1009B0000094444807F09EFE04A809F085F93988A0
:1009C0000A2204A809F006FA049F38460DF018FF21
:1009D0003168019403463A4600943A4807F08AFE8B
:1009E00004A809F071F93E4B0A22198804A809F0FD
:1009F000F1F9049E30460DF003FF29680194034687
:100A0000324600942F4807F075FE04A809F05CF9FF
:100A1000364B0A22198804A809F0DCF9049D2846FF
:100A20000DF0EEFE324B01941968009403462A46FD
:100A3000244807F05FFE04A809F046F92D4B0A226E
:100A4000198804A809F0C6F9049D28460DF0D8FEBF
:100A5000294B01941968009403462A46194807F067
:100A600049FE04A809F030F9244B0A22198804A889
:100A700009F0B0F9049D28460DF0C2FE204B019408
:100A80001968009403462A460E4807F033FE04A86E
:100A900009F01AF91B4B0A22198804A809F09AF9DF
:100AA000049D28460DF0ACFE174B01941968009484
:100AB00003462A4632E000BFA4060100C00601003A
:100AC000940601000C16FF1FAC18FF1F3E07FF1F06
:100AD0004C15FF1FE016FF1FBE18FF1FC017FF1F9A
:100AE0005007FF1FE017FF1FE818FF1F4407FF1FF5
:100AF0002418FF1F4607FF1FA414FF1F4C07FF1FEA
:100B0000AC16FF1F4E07FF1F7415FF1F5807FF1F6E
:100B10003418FF1F3A07FF1F8813FF1F2E4807F0E6
:100B2000E9FD04A809F0D0F82C4B2B48196822469F
:100B300007F0A0FE2A4B28481968224607F09AFEC3
:100B4000284B25481968224607F094FE264B224878
:100B50001968224607F08EFE244B1F48196822466A
:100B600007F088FE224B1C481968224607F082FED7
:100B7000204B19481968224607F07CFE1E4B164888
:100B80001968224607F076FE1C4B13481968224666
:100B900007F070FE1A4B10481968224607F06AFEEB
:100BA000184B0D481968224607F064FE164B0A4898
:100BB0001968224607F05EFE144B07481968224662
:100BC00007F058FE124B04481968224607F052FEFF
:100BD00009B0BDE8F08F00BF0C16FF1F9816FF1F6D
:100BE0006418FF1F5C15FF1F9C18FF1F0418FF1FD0
:100BF000B814FF1F2015FF1FDC14FF1FB017FF1FC5
:100C00007818FF1FF014FF1FD016FF1F5418FF1F86
:100C10003C14FF1F70B586B004460D4602A8134968
:100C2000134E09F091F8214602A809F083F9114901
:100C300009F088F9294609F07DF90146304608F0A7
:100C4000C5FF304608F0E8FF02A809F03DF82D681E
:100C500028460DF0D5FD2168002403462A4601945C
:100C60000094054807F046FD06B070BDA8060100D7
:100C70000009FF1FBC0601000C16FF1F38B5144CFD
:100C8000257835B94FF47A71124803F003FE90B914
:100C900038BD32210F4803F0FDFD0028F8D00021B7
:100CA0000C4803F0EDFD0023194623700D20BDE82C
:100CB000384009F0B5BF2946064803F0E1FD01239D
:100CC000194623700D20BDE8384009F0A9BF00BFC8
:100CD0009E14FF1F4418FF1F70B542F2107186B0BA
:100CE000764803F0D7FD002800F0E680744D754883
:100CF00004F0EAF9E97902A809F058F8029E3046B2
:100D00000DF07EFD704B00243246196801940346B5
:100D100000946E4807F0EEFC02A808F0D5FF2146CB
:100D2000684804F00FFA022102A809F067F8029E51
:100D300030460DF065FD664B01943246196800940B
:100D40000346624807F0D6FC02A808F0BDFFE97B25
:100D500002A809F02BF8029E30460DF051FD5D4BC4
:100D600001943246196800940346584807F0C2FCC3
:100D700002A808F0A9FF0121524804F0E3F902217A
:100D800002A809F03BF8029E30460DF039FD524BA7
:100D9000019432461968009403464C4807F0AAFCB7
:100DA00002A808F091FFE97D02A808F0FFFF029E6B
:100DB00030460DF025FD494B0194324619680094E8
:100DC0000346424807F096FC02A808F07DFF022186
:100DD0003C4804F0B7F9022102A809F00FF8029E7E
:100DE00030460DF00DFD3E4B0194324619680094DB
:100DF0000346364807F07EFC02A808F065FFE97F4D
:100E000002A808F0D3FF029E30460DF0F9FC354BE6
:100E1000019432461968009403462C4807F06AFC96
:100E200002A808F051FF0321264804F08BF90221A3
:100E300002A808F0E3FF029E30460DF0E1FC2A4BC9
:100E400001941968009403463246204807F052FC8A
:100E500002A808F039FF95F8271002A808F0A6FFAD
:100E6000029D28460DF0CCFC204B01942A461968BF
:100E700000940346154807F03DFC02A808F024FF43
:100E80000421104804F05EF9022102A808F0B6FF20
:100E9000029D28460DF0B4FC154B0194196800948E
:100EA00003462A46094807F025FC02A808F00CFF73
:100EB0002146024803F0E4FC06B070BDC016FF1FD7
:100EC0000417FF1F9417FF1FE815FF1F0C16FF1FC5
:100ED0004017FF1FD017FF1F5017FF1FFC15FF1FE4
:100EE0006017FF1FE417FF1F7017FF1FF417FF1F86
:100EF0008017FF1F38B5441EC51D06E008480023B3
:100F0000102208F099FEAC4209D014F8011F0F29F5
:100F1000F4D8012103480BF035FB2178EEE738BD0A
:100F20000009FF1F240701002DE9F043254DDFF8DC
:100F3000C490254F254ADFF8C080254E254C00235C
:100F400083B03B7029464846234F3370237013709B
:100F5000224E234C02F0E6FB2946404602F0E2FB1B
:100F60002946384602F0DEFB2946304602F0DAFB1D
:100F7000D4ED007A4846B8EEE70A02F0A3FCD4EDBF
:100F8000007A4046B8EEE70A02F09CFCD4ED007A05
:100F90003846B8EEE70A02F095FC94ED000A3046B8
:100FA000B8EEC00A02F08EFC0E4A0F4B1268019296
:100FB000019A0E490E481A6008F066FF03B0BDE8BA
:100FC000F08300BF6079FEFF9F14FF1FEC14FF1F2A
:100FD000A816FF1F7015FF1F9815FF1F4C14FF1F49
:100FE0005407FF1F9019FF1F0015FF1F280701005E
:100FF000F016FF1F9C13FF1FEC13FF1F70B588B086
:1010000004460D4604A8AE4908F09EFE214604A8F9
:1010100008F090FFAB4908F095FF294608F08AFFD9
:101020000146A94808F0D2FDA74808F0F5FD04A83C
:1010300008F04AFE2046A54908F0AEFF00285CD122
:10104000A349204608F0A8FF002840F08F80A1495E
:10105000204608F0A1FF002840F094809E492046D9
:1010600008F09AFF002840F099809C49204608F03B
:1010700093FF002840F09E809949204608F08CFF9D
:1010800010B1984B01221A709749204608F084FF4E
:10109000002840F0A4819549204608F07DFF0028F3
:1010A00040F07D819249204608F076FF002840F00C
:1010B00051819049204608F06FFF002840F0D98008
:1010C0008D49204608F068FF002840F0AB808B492E
:1010D000204608F061FF00287DD18949204608F0AC
:1010E0005BFF00286CD12046864908F055FF10B1FF
:1010F000854B01221A7008B070BD284608F08AFF9F
:10110000014604A808F034FE804904A808F052FF04
:1011100010B17F4B00221A807E4904A808F04AFFD4
:1011200010B17B4B01221A807B4904A808F042FFD2
:1011300010B1774B02221A80784904A808F03AFFD0
:1011400010B1734B03221A80754904A808F032FFCE
:1011500010B16F4B04221A8004A808F0B5FD5C4959
:10116000204608F019FF00283FF471AF284608F028
:1011700061FF6C4B57491880204608F00DFF00288E
:101180003FF46CAF284608F055FF674B5249188072
:10119000204608F001FF00283FF467AF284608F01A
:1011A00049FF624B4D491880204608F0F5FE0028A3
:1011B0003FF462AF284608F03DFF5D4B18805BE7C7
:1011C0005C4B5D4801220F211A700BF0DBF93E48A1
:1011D00008F022FD87E7284608F02CFF0028C0F21F
:1011E0000C81FF2840F30581FF20544D544928808D
:1011F00004A808F0A9FD0A222988684608F0EAFD3B
:10120000694604A808F096FE01462F4808F0DEFC67
:101210002D4808F001FD684608F056FD04A808F0C6
:1012200053FD5AE7284608F005FF0028C0F2E98080
:10123000FF2840F3DC80FF20424E4349308004A861
:1012400008F082FD0A223188684608F0C3FD69462D
:1012500004A808F06FFE01461B4808F0B7FC1A48C6
:1012600008F0DAFC684608F02FFD04A808F02CFD11
:101270002DE7284608F0DEFE0028C0F2C480FF28D3
:1012800040F3B380FF20314E3149308004A808F08C
:101290005BFD0A223188684608F09CFD694604A877
:1012A00008F048FE0146084808F090FC064808F09F
:1012B000B3FC684608F008FD04A808F005FDFFE649
:1012C00030070100BC0601000009FF1F9816FF1F30
:1012D0005C15FF1F9C18FF1F0418FF1FB814FF1F89
:1012E0002015FF1FD118FF1F6418FF1FDC14FF1FFC
:1012F000B017FF1F7818FF1FF014FF1FD016FF1F35
:101300005418FF1F3C14FF1F6C15FF1F3C07010002
:10131000BE18FF1F40070100480701004C070100ED
:10132000540701005807FF1F3A07FF1F3E07FF1F22
:101330005007FF1F1C15FF1FB80701004E07FF1FB6
:10134000A40701004C07FF1F900701004607FF1F7D
:101350007C070100284608F06DFE00284FDBFF28BF
:1013600049DDFF20294E2A49308004A808F0ECFC12
:101370000A223188684608F02DFD694604A808F065
:10138000D9FD0146234808F021FC224808F044FC1E
:10139000684608F099FC04A808F096FC89E62846FF
:1013A00008F038FE014604A808F0E2FC1A4904A837
:1013B00008F000FE20B11949194A01230B7013707F
:1013C000184904A808F0F6FD28B11449144B002070
:1013D000012208701A7004A808F076FC62E6FFF794
:1013E000A3FD114B01221A7055E680B24BE780B283
:1013F00022E780B2F9E680B2B4E70020F5E60020EB
:10140000B0E7002018E700203DE700BF4407FF1FBA
:10141000680701000009FF1F5C070100E418FF1FB7
:101420000017FF1F600701003C07FF1F10B50B21CD
:1014300082B02548254C0BF0A5F8254808F0ECFBB8
:10144000244B22681B689A4238D200212248234C40
:1014500002F068F90021224802F064F900212148D5
:1014600002F060F90021204802F05CF9D4ED007A26
:101470001948B8EEE70A02F025FAD4ED007A1848C8
:10148000B8EEE70A02F01EFAD4ED007A1548B8EE7D
:10149000E70A02F017FA94ED000A1348B8EEC00A02
:1014A00002F010FA114A124B12680192019A114986
:1014B00011481A6008F0E8FC02B010BDFFF734FDD7
:1014C0000023236002B010BDC80701009017FF1F62
:1014D0000009FF1F9813FF1F9C13FF1F5407FF1FD6
:1014E000EC13FF1F9815FF1F4C14FF1F9019FF1FCF
:1014F0000015FF1FD4070100F016FF1F2DE9F04370
:10150000092183B0234DDFF8B4902348DFF8B08081
:10151000224F234E234C0BF035F8234808F07CFB78
:101520002988484602F0FEF82988404602F0FAF879
:101530002988384602F0F6F82988304602F0F2F899
:10154000D4ED007A4846B8EEE70A02F0BBF9D4EDD4
:10155000007A4046B8EEE70A02F0B4F9D4ED007A1A
:101560003846B8EEE70A02F0ADF994ED000A3046CD
:10157000B8EEC00A02F0A6F90C4A0D4B12680192AF
:10158000019A0C490C481A6008F07EFC03B0BDE8D3
:10159000F08300BF5207FF1FDC0701009815FF1FF3
:1015A0004C14FF1F5407FF1F0009FF1F9019FF1F56
:1015B0000015FF1FE8070100F016FF1F9C13FF1F17
:1015C000EC13FF1F30B5304C237889B03BB12F4B63
:1015D0001B78002B54D1FFF729FF002323702C4CDC
:1015E0002378BBB12B4B2C491B786846002B42D18A
:1015F00008F0BEFB294904A808F0A6FB04A9684628
:10160000FFF708FB04A808F05FFB684608F05CFBE6
:1016100000232370224D234C2A8823889A4203D02A
:10162000FFF782FC2B8823801F4D204C2A882388BB
:101630009A4203D0FFF778FC2B8823801C4D1D4C69
:101640002A8823889A4203D0FFF76EFC2B882380D8
:10165000194D1A4C2A8823889A4203D0FFF764FC5C
:101660002B882380164B1B781BB1FEF71DFFFFF75D
:101670005BFC09B030BD08F07BFB04A81149BBE757
:10168000FFF73CFFA9E700BF0017FF1FE418FF1F8B
:101690003C07FF1FE017FF1FE818FF1FF4070100BA
:1016A0004407FF1F9C14FF1F4607FF1FB414FF1FB2
:1016B0004C07FF1F6E15FF1F4E07FF1F1A15FF1F58
:1016C0001C15FF1FF007010008B50A2800F2B880BA
:1016D000DFE800F025425F7C99B6B6B6B6B60600E4
:1016E00001220021654802F0F9FD012211466348FC
:1016F00002F0F4FD01220221604802F0EFFD012218
:1017000003215E4802F0EAFD15215D480AF03AFF28
:101710005C4808F081FA5C4B0A221A8008BD00225E
:101720001146564802F0DAFD00220121534802F02A
:10173000D5FD00220221514802F0D0FD00220321F4
:101740004E4802F0CBFD142150480AF01BFF4D48D3
:10175000BDE8084008F060BA01220021474802F0C5
:10176000BDFD00220121454802F0B8FD0022022102
:10177000424802F0B3FD00220321404802F0AEFDD2
:10178000162143480AF0FEFE3E48BDE8084008F036
:1017900043BA00221146394802F0A0FD0122114649
:1017A000364802F09BFD00220221344802F096FDEB
:1017B00000220321314802F091FD142135480AF03E
:1017C000E1FE3048BDE8084008F026BA0022114684
:1017D0002A4802F083FD00220121284802F07EFD04
:1017E00001220221254802F079FD0022032123482D
:1017F00002F074FD162128480AF0C4FE2148BDE815
:10180000084008F009BA002211461C4802F066FDA3
:1018100000220121194802F061FD0022022117482F
:1018200002F05CFD01220321144802F057FD15214E
:101830001A480AF0A7FE1348BDE8084008F0ECB9C2
:10184000002211460D4802F049FD002201210B48FB
:1018500002F044FD00220221084802F03FFD002270
:101860000321064802F03AFD24210D480AF08AFEC1
:101870000448BDE8084008F0CFB900BFF818FF1FC2
:101880005C0801000009FF1FBE18FF1F840801004B
:10189000FC070100140801002C08010044080100A5
:1018A00074080100F0B51E2087B009F0BFF9234C81
:1018B000234E031C18BF01231F20237009F0B6F923
:1018C000257833781F4A003018BF0120AB421070D2
:1018D00019D0D5B90120FFF7F7FE1B4902A808F07F
:1018E00033FA029F38460CF08BFF184B01951968AC
:1018F000009503463A46164806F0FCFE02A808F09A
:10190000E3F92378337007B0F0BD0020FFF7DCFE69
:10191000104902A808F018FA029F38460CF070FF30
:101920000A4B00251968019503463A460095084878
:1019300006F0E0FE02A808F0C7F9E2E72C17FF1F47
:10194000F815FF1F1815FF1FA4080100C018FF1F7E
:101950000C16FF1F9C08010070B5012888B037D015
:1019600002285BD003287FD0042801D008B070BDC6
:10197000C1F57F6200240F324E4D0294234692B28D
:101980002146019400944C4802F01EFF29880A2247
:1019900004A808F01FFA049E30460CF031FF474BB4
:1019A00001941968009403463246454806F0A2FEA9
:1019B00004A808F089F943481A210AF0E3FD2988B0
:1019C000414808F079F9404808F026F908B070BDA0
:1019D000C1F57F6200240F323C4D0294234692B23F
:1019E000032101940094344802F0EEFE29880A2273
:1019F00004A808F0EFF9049E30460CF001FF344BC8
:101A0000019419680094034632462D4806F072FE90
:101A100004A808F059F91B212E48CEE7C1F57F62D2
:101A200000240F322C4D02942346014692B20194B9
:101A30000094214802F0C8FE29880A2204A808F070
:101A4000C9F9049E30460CF0DBFE244B0194196862
:101A50000094034632461A4806F04CFE04A808F0EB
:101A600033F919211E48A8E7C1F57F6200240F321F
:101A70001C4D0294234692B20121019400940E4819
:101A800002F0A2FE29880A2204A808F0A3F9049E05
:101A900030460CF0B5FE144B0194196800940346CF
:101AA0003246074806F026FE04A808F00DF91B216F
:101AB0000E4882E75007FF1F8413FF1FE016FF1F29
:101AC0000C16FF1F000901000009FF1F5807FF1F28
:101AD0003418FF1FAC0801003A07FF1F8813FF1FCF
:101AE000C80801003E07FF1F4C15FF1FE408010056
:101AF000F0B55F4D5F4E28883388834287B00FD0A2
:101B0000FFF7E2FD2C88002C3DD0012C00F08180F5
:101B1000022C50D0032C65D0042C00F0918034802E
:101B2000554D564C298823888B4204D00120FFF75D
:101B300013FF2B882380524D524C298823888B42D7
:101B400004D00220FFF708FF2B8823804E4D4F4C16
:101B5000298823888B4204D00320FFF7FDFE2B88C1
:101B600023804B4D4B4C298823888B4204D0042082
:101B7000FFF7F2FE2B882380474B1B780BB1FEF753
:101B80005DFD07B0F0BD454902A808F0DDF8029FF1
:101B900038460CF035FE424B019419680094034618
:101BA0003A46404806F0A6FD02A808F08DF82C88B9
:101BB000012CADD12DE03C4902A808F0C5F8029FE8
:101BC00038460CF01DFE364B00241968019403467C
:101BD0003A460094334806F08DFD02A808F074F8E8
:101BE0002C8897E7314902A808F0AEF8029F3846E2
:101BF0000CF006FE2A4B00241968019403463A466D
:101C00000094284806F076FD02A808F05DF82C88BC
:101C100082E7274902A808F097F8029F38460CF09F
:101C2000EFFD1F4B00241968019403463A460094C7
:101C30001C4806F05FFD02A808F046F82C8867E70C
:101C40001C4902A808F080F8029F38460CF0D8FD25
:101C5000134B00241968019403463A460094114836
:101C600006F048FD02A808F02FF82C8857E700BFBF
:101C7000BE18FF1FD814FF1F5807FF1F0217FF1FB2
:101C80003A07FF1F4815FF1F3E07FF1F3415FF1FB0
:101C90005007FF1F7618FF1FD118FF1F1C090100F6
:101CA000C017FF1F0C16FF1F280901002C09010097
:101CB00020090100340901002DE9F047DFF8709494
:101CC000E04CE14DE149DFF86C84E14FDFF868A4B6
:101CD000E04E84B0484608F037F822462946484688
:101CE0000AF0D0FEDC48DFF8549402F057FD40467D
:101CF000202102F0DFFD4146D848DFF8448402F09D
:101D000061FF3846D64908F01FF822462946384672
:101D10000AF0B8FE5046D349D34F08F015F82246D2
:101D2000294650460AF0AEFE3046D049DFF814A4EA
:101D300008F00AF82246294630460AF0A3FE484633
:101D4000CB49CC4E08F000F82246294648460AF016
:101D500099FE4046C849DFF8F09307F0F5FF2246A8
:101D6000294640460AF08EFE3846C449DFF8DC8337
:101D700007F0EAFF2246294638460AF083FE50461D
:101D8000BF49C04F07F0E0FF2246294650460AF0FF
:101D900079FE3046BC49DFF8B8A307F0D5FF2246EC
:101DA000294630460AF06EFE4846B849B84E07F05C
:101DB000CBFF2246294648460AF064FE4046B54914
:101DC000DFF8909307F0C0FF2246294640460AF00C
:101DD00059FE3846B049DFF8808307F0B5FF224648
:101DE000294638460AF04EFE5046AC49AC4F07F043
:101DF000ABFF2246294650460AF044FE3046A94928
:101E0000DFF858A307F0A0FF2246294630460AF023
:101E100039FE4846A449A54E07F096FF22462946BA
:101E200048460AF02FFE4046A149DFF8349307F0F8
:101E30008BFF2246294640460AF024FE38469D493B
:101E4000DFF8208307F080FF2246294638460AF053
:101E500019FE50469849994F07F076FF22462946C9
:101E600050460AF00FFE30469549DFF8FCA207F015
:101E70006BFF2246294630460AF004FE4846914947
:101E8000914E07F061FF2246294648460AF0FAFDC6
:101E900040468E49DFF8D49207F056FF2246294685
:101EA00040460AF0EFFD38468949DFF8C48207F062
:101EB0004BFF2246294638460AF0E4FD5046854944
:101EC000854F07F041FF2246294650460AF0DAFDC9
:101ED00030468249DFF89CA207F036FF22462946A9
:101EE00030460AF0CFFD48467D497E4E07F02CFF74
:101EF0002246294648460AF0C5FD40467A49DFF8A1
:101F0000789207F021FF2246294640460AF0BAFDA2
:101F100038467649DFF8648207F016FF22462946E4
:101F200038460AF0AFFD50467149724F07F00CFF7A
:101F30002246294650460AF0A5FD30466E49DFF894
:101F400040A207F001FF2246294630460AF09AFDDA
:101F500048466A496A4E07F0F7FE22462946484637
:101F60000AF090FD40466749DFF8189207F0ECFE52
:101F70002246294640460AF085FD38466249DFF888
:101F8000088207F0E1FE2246294638460AF07AFD2B
:101F900050465E495E4F07F0D7FE2246294650461E
:101FA0000AF070FD30465B49DFF8E0A107F0CCFE97
:101FB0002246294630460AF065FD48465649574EA6
:101FC00007F0C2FE2246294648460AF05BFD40461D
:101FD0005349DFF8BC9107F0B7FE22462946404638
:101FE0000AF050FD38464F49DFF8A88107F0ACFEF3
:101FF0002246294638460AF045FD50464A494B4F8D
:1020000007F0A2FE2246294650460AF03BFD314623
:10201000484607F099FE2246294648460AF032FD16
:102020003146404607F090FE2246294640460AF0D7
:1020300029FD3146384607F087FE04262246294608
:10204000AAE000BF3007FF1FC99C00003C09010047
:10205000C017FF1F8813FF1F8413FF1F9417FF1F54
:10206000480901005C0901009816FF1F840901005E
:10207000AC0901009C18FF1FD4090100FC090100F4
:10208000100A01002015FF1F380A0100600A010034
:102090006418FF1F880A0100B00A0100D00A01007D
:1020A000F014FF1FEC0A0100000B01005418FF1F81
:1020B000200B0100400B0100600B0100A414FF1F66
:1020C000800B0100A00B01007415FF1FBC0B010069
:1020D000DC0B0100FC0B01004017FF1F1C0C010072
:1020E0003C0C01005017FF1F500C0100680C010050
:1020F000880C0100E417FF1FA00C0100C00C0100B8
:10210000F417FF1FD80C0100F80C0100100D01009E
:10211000D418FF1F300D0100480D0100C00601005A
:10212000680D0100880D0100A00D01001418FF1FAB
:102130003017FF1F0415FF1F3418FF1F4C15FF1F1A
:10214000E016FF1F5C15FF1F0418FF1FB814FF1FC8
:10215000DC14FF1FB017FF1F7818FF1FD016FF1FDA
:10216000E818FF1F2418FF1FAC16FF1FC018FF1F21
:10217000E815FF1FD017FF1FFC15FF1F6017FF1F7B
:102180007017FF1F8017FF1F3C14FF1FAC18FF1FA5
:10219000F016FF1F3815FF1F3846012505270AF0E6
:1021A00071FC029529468DE8C00025232622264889
:1021B000DFF8C48001F010FB02958DE8C0002946CD
:1021C00023232422214801F007FB02958DE8C0005B
:1021D0002946212322221E4801F0FEFA10230F2255
:1021E00002958DE8C00029461A4801F0F5FA002151
:1021F000194802F029FB0021184802F025FB0021B4
:10220000174802F021FB0021164802F01DFB0021B7
:10221000154802F019FB154B154A1A6000254FF4BA
:102220007A729A604046082680211D711D73DA81FA
:102230005E7306F0BBF90F492246404604B0BDE884
:10224000F0470AF01FBC00BF9C13FF1FEC13FF1FD9
:102250009815FF1F4C14FF1F4418FF1FFC18FF1F89
:10226000C016FF1FC814FF1F8415FF1F8818FF1F0B
:1022700010110100D58600000C16FF1F2DE9F04F4C
:102280004FF4E1318FB0AC48AC4FAD4C07F012FCCD
:102290000E21AC4802F026FA01211D2008F0D4FCE2
:1022A00001211D2008F0BCFC0221182008F0CCFC04
:1022B0000221192008F0C8FC02211A2008F0C4FCF1
:1022C00002211B2008F0C0FC01211C2008F0BCFCEE
:1022D0009621112008F004FB1C219B4801F030FBE3
:1022E000D7ED007A9848B8EEE70A01F0B7FA94ED16
:1022F000000A954801F0DEFA0022114601239248B7
:1023000001F034FB904801F027F9D7ED007A8F48AF
:10231000B8EEE70A01F0A2FA94ED000A8B4801F04A
:10232000C9FA002211460123884801F01FFBD7EDAE
:10233000007A8748B8EEE70A01F090FA94ED000AB7
:10234000834801F0B7FA002211460123804801F0CA
:102350000DFBD7ED007A7F48B8EEE70A01F07EFA70
:1023600094ED000A7B4801F0A5FA002211460123F2
:10237000784801F0FBFA00211E2008F065FC0021DE
:102380001F2008F061FC01210D2008F05DFC4FF4D6
:102390007A7008F083FC0A2002F0E8FF02F0ECFFFC
:1023A0000D2104466C480AF0EDF8012C1ED0002CDB
:1023B00000F04884022C4FF00301684804D10AF071
:1023C000E1F8674807F028FCFEF752F84FF47A70FE
:1023D00008F064FC0A2002F0C9FF4FF47A7008F09C
:1023E0005DFC02F0C9FF01280446E0D15D4B5E4A66
:1023F00019785D789C785D48DB788DF82C100AA9F7
:102400008DF82F300A928DF82D508DF82E4002F065
:1024100097FF4FF4FA7008F041FC40F25B72544BA6
:102420005449554806F006F95449534806F0EEF869
:10243000FEF7CEF94FF4FA7008F030FC1321504843
:1024400001F0A6FB12214E4801F070FB4C4A4D48AA
:10245000602102F0A5F9002800F0FD830024234646
:1024600021464FF4FA620294019400944548DFF843
:10247000308102F0A9F923464FF4FA620121029457
:10248000019400943F4802F09FF923464FF4FA620A
:1024900002210294019400943A4802F095F92346EF
:1024A0004FF4FA620321029401940094354802F03B
:1024B0008BF9354801F0A4FE21460122324801F093
:1024C000EFFE01221146304801F0EAFE012202210E
:1024D0002D4801F0E5FE032101222B4801F0E0FE2A
:1024E0002A4A2B4B12680592059A2A481A6002F074
:1024F0006DFC4FF47A7008F0D1FB0A21254802F0F8
:102500008BFD244802F06EFB1721C8F8000022481A
:102510000AF038F8D8F80010114807F0CDFB104841
:1025200007F07AFBD8F80030A34240F3A0831B4E9B
:10253000DFF8709035463DE0E408FF1F5407FF1FA9
:102540004807FF1FA008FF1F9C13FF1FEC13FF1F6E
:102550009815FF1F4C14FF1FE00D0100F80D01003E
:102560000009FF1F4007FF1F4C1201003407FF1F27
:102570008818FF1F3C0901000C16FF1FFD0F00000B
:10258000C807FF1F8413FF1FF818FF1F9019FF1FB4
:102590009415FF1F9417FF1F180E01000417FF1F4B
:1025A0003015FF1FBC0D0100D8F80030A34209F11F
:1025B000010918DDE2B22946C84802F015FB0134D2
:1025C00008350028F0D148460CF01AF90146484673
:1025D00009F0D8FFC24807F01FFBD8F80030A3422B
:1025E00009F10109E6DC002B40F34183002506AC2C
:1025F000BC490AA807F0A8FB0A222946204607F092
:10260000E9FB21460AA807F095FCB74907F09AFCB8
:102610000146B34807F0DAFA204607F055FB0AA84E
:1026200007F052FB3046FEF765FCAD4807F0F4FAC0
:10263000D8F800300135AB4206F10806D8DC0D2190
:10264000AA48AB4EDFF8E4A2DFF8EC92DFF8EC82A8
:1026500009F098FFA24807F0DFFA0021A54800F032
:10266000D3FF0021A44800F0CFFF0021A34800F0D1
:10267000CBFF0021A24800F0C7FFA2499D4801F00E
:1026800051F8A0499C4801F04DF89E499B4801F043
:1026900049F89C499A4801F045F8D7ED007A9548E9
:1026A000B8EEE70A01F00EF9D7ED007A9248B8EEDD
:1026B000E70A01F007F9D7ED007A9048B8EEE70A8B
:1026C00001F000F997ED000A8D48B8EEC00A01F05C
:1026D000F9F88D498D4807F0D7FB00218C4802F0AE
:1026E0004DFD052130808A4802F048FD0A21AAF8F4
:1026F0000000874802F042FD0F21A9F8000084483D
:1027000002F03CFD2F21A8F80000824809F03AFFB2
:10271000734807F081FA23217F4809F033FF70489E
:1027200007F07AFA7D490AA807F00EFB0A223188E1
:10273000204607F04FFB21460AA807F0FBFB0146A5
:10274000674807F043FA664807F066FA204607F044
:10275000BBFA0AA807F0B8FA71490AA807F0F4FA18
:102760000A22BAF80010204607F034FB21460AA8D6
:1027700007F0E0FB01465A4807F028FA584807F0EE
:102780004BFA204607F0A0FA0AA807F09DFA65491F
:102790000AA807F0D9FA0A22B9F80010204607F073
:1027A00019FB21460AA807F0C5FB01464C4807F073
:1027B0000DFA4B4807F030FA204607F085FA0AA8D0
:1027C00007F082FA58490AA807F0BEFA0A22B8F8B8
:1027D0000010204607F0FEFA21460AA807F0AAFBDF
:1027E00001463F4807F0F2F93D4807F015FA204648
:1027F00007F06AFA0AA807F067FA32884FF6FF7303
:102800009A4200F03182BAF8002048494148484DC8
:10281000484FDFF83CB14FF6FF739A4208BFC82318
:10282000B9F8002008BF0B804FF6FF739A42424967
:10283000B8F8002004BFC8230B804FF6FF739A42FC
:102840003E4904BFC8230B803D4B19884FF6FF72E9
:10285000914204BF78221A803A4B19684FF6FF72F2
:10286000914208BF0A224FF02F0108BF1A6009F0F9
:1028700089FE1B4807F0D0F91921334809F082FE80
:10288000174807F0C9F925490AA807F05DFA0A2296
:1028900031882E4E204607F09DFA21460AA807F0FF
:1028A00049FB01460E4807F091F90D4807F0B4F9CD
:1028B000204607F009FA0AA807F006FA18490AA8FC
:1028C00007F042FA0A22BAF80010204607F082FA0E
:1028D00021460AA807F02EFB01463BE09417FF1F94
:1028E0000009FF1F640E01006C0E0100300E010094
:1028F0004407FF1F9C13FF1FEC13FF1F9815FF1FBA
:102900004C14FF1F6079FEFF28070100F016FF1F1F
:102910001019FF1FA4050100400E01006C07010003
:102920008007010094070100A80701004607FF1F68
:102930005807FF1F3A07FF1F4C07FF1F4E07FF1FD7
:102940005207FF1F9813FF1F780E01005007FF1F4B
:102950003E07FF1FC74807F039F9C64807F05CF982
:10296000204607F0B1F90AA807F0AEF9C2490AA853
:1029700007F0EAF90A22B9F80010204607F02AFA0F
:1029800021460AA807F0D6FA0146BA4807F01EF910
:10299000B84807F041F9204607F096F90AA807F071
:1029A00093F9B6490AA807F0CFF90A22B8F800103F
:1029B000204607F00FFA21460AA807F0BBFA0146A5
:1029C000AC4807F003F9AB4807F026F9204607F0BA
:1029D0007BF90AA807F078F91421A94802F0CEFB88
:1029E00019212880A64802F0C9FB1E213880A4487E
:1029F00002F0C4FB2321ABF80000A14802F0BEFBAB
:102A00002F2130809F4809F0BDFD9A4807F004F956
:102A100025219D4809F0B6FD964807F0FDF89B4931
:102A20000AA807F091F90A222988204607F0D2F96E
:102A300021460AA807F07EFA01468E4807F0C6F83C
:102A40008C4807F0E9F8204607F03EF90AA807F09D
:102A50003BF98F490AA807F077F90A2239882046FE
:102A600007F0B8F921460AA807F064FA0146814840
:102A700007F0ACF87F4807F0CFF8204607F024F9BC
:102A80000AA807F021F983490AA807F05DF90A228C
:102A9000BBF80010204607F09DF921460AA807F070
:102AA00049FA0146734807F091F8724807F0B4F804
:102AB000204607F009F90AA807F006F976490AA89E
:102AC00007F042F90A223188204607F083F92146AF
:102AD0000AA807F02FFA0146664807F077F865481C
:102AE00007F09AF8204607F0EFF80AA807F0ECF88C
:102AF0002A886A4963484FF6FF739A4208BF4FF429
:102B0000FA633A8808BF2B804FF6FF739A4208BFDA
:102B10004FF4FA63BBF8002008BF0B804FF6FF7339
:102B20009A425F49328804BF4FF4FA630B804FF634
:102B3000FF739A425B4904BF4FF4FA630B802F2165
:102B400009F020FD4B4807F067F81B21564809F0B3
:102B500019FD484807F060F84C490AA807F0F4F856
:102B60000A222988204607F035F921460AA807F0ED
:102B7000E1F901463F4807F029F83E4807F04CF8D4
:102B8000204607F0A1F80AA807F09EF840490AA8D5
:102B900007F0DAF80A223988204607F01BF92146A7
:102BA0000AA807F0C7F90146324807F00FF8314884
:102BB00007F032F8204607F087F80AA807F084F8F3
:102BC00034490AA807F0C0F80A22BBF800102046D2
:102BD00007F000F921460AA807F0ACF9014625489C
:102BE00006F0F4FF234807F017F8204607F06CF8CA
:102BF0000AA807F069F828490AA807F0A5F80A22E8
:102C00003188204607F0E6F821460AA807F092F935
:102C10000146184806F0DAFF164806F0FDFF204688
:102C200007F052F80AA807F04FF82F21154809F0CD
:102C3000A9FC104806F0F0FF1C4B01221A700FB0DF
:102C4000BDE8F08F07211A4809F09CFC094806F0FE
:102C5000E3FFFFF7B9BB1B21164809F093FC0548B9
:102C600006F0DAFFFFF7FABBC8233380CBE506ACEA
:102C7000E5E400BF0009FF1F94070100A807010059
:102C80001019FF1FA4050100940E01001C0601008D
:102C90003406010048060100600601003A07FF1FE4
:102CA0003E07FF1F5007FF1FBC0E0100D018FF1F7B
:102CB000F00D0100FC0D01002DE9F04FDFF8CC8292
:102CC000984CD8F80030984D984E994F83B0182002
:102CD0000093009B07F0AAFF031C18BF01231920D3
:102CE000237007F0A3FF031C18BF01231A202B70C9
:102CF00007F09CFF031C18BF01231B20337007F053
:102D000095FF031C18BF01238A498B483B7007F0CD
:102D100051F9002800F08880884800F03BFE884880
:102D200000F038FE874800F035FE874800F032FE9C
:102D3000824800F011FC85497F4807F03BF90028E4
:102D400049D02378002B00F07781DFF8449299F87E
:102D500000A0BAF1000F00F0AE812B78002B00F03C
:102D60007481DFF8ECA19AF800B0BBF1000F00F01D
:102D700090813378002B00F06F81DFF8D8A19AF8AA
:102D800000B0BBF1000F00F072813B78002B00F027
:102D90006A81DFF8C4A19AF800B0BBF1000F00F01F
:102DA0009C8199F8003053B1694B1B783BB1694B5A
:102DB0001B7823B1684B1B78002B40F0A081674A39
:102DC000674B21781170674A29781970664B317802
:102DD00011703A781A706549574807F0EBF80028E7
:102DE00062D16349544807F0E5F808BB614952488D
:102DF00007F0E0F8A8B12378002B00F00E812B78C3
:102E0000002B00F011813378002B00F0F5803B7827
:102E1000002B00F0F880494800F0F2FB002800F099
:102E2000B98003B0BDE8F08F444800F05DFB82E755
:102E3000424800F0A1FD424800F09EFD414800F0EC
:102E40009BFD414800F098FD3C4800F0D9FB00286C
:102E5000CCD13B4800F0D4FB0028C7D1394800F062
:102E6000CFFB0028C2D1384800F0CAFB82460028B8
:102E7000BCD1414B41484FF001090A2183F8009031
:102E800009F080FB3E4B3F4819680A22534606F082
:102E9000D3FE3C4806F0C0FE3B4B2649264883F84B
:102EA000009006F0F1FFA1E7244800F065FD2448FA
:102EB00000F062FD234800F05FFD234800F05CFD58
:102EC0001E4800F09DFB00288BD11D4800F098FBA8
:102ED000002886D11B4800F093FB002881D11A48B6
:102EE00000F08EFB814600287FF47BAF014613483B
:102EF00000F08AFB4946124800F086FB494611481B
:102F000000F082FB4946104800F07EFB1A4A1E4B37
:102F100082F800900749084801221A7006F0B4FFB1
:102F20005FE700BF9918FF1FBC18FF1F7418FF1F31
:102F30007518FF1FD80E0100F016FF1F9C13FF1F0E
:102F4000EC13FF1F9815FF1F4C14FF1F28070100EB
:102F5000A816FF1F7015FF1FEC14FF1FBC16FF1FE4
:102F6000F918FF1F6D15FF1F9818FF1F6C0F010048
:102F7000E8070100D4070100E017FF1F780F0100E8
:102F8000A014FF1F0009FF1F3C07FF1F9019FF1F20
:102F90009F14FF1F794800F033FB00287FF441AFF6
:102FA000774800F02DFB00287FF43BAF754800F018
:102FB00027FB054600287FF434AFD8F80020724B79
:102FC0000192019A1B687149714C0D70D21A0C2143
:102FD0007048226009F0D6FA2B4621686E480A2212
:102FE00006F02AFE6C4806F017FE6C496C4806F0A5
:102FF0004BFF03B0BDE8F08F614800F0BDFC3B78AB
:10300000002B7FF408AF5F4800F0B6FC654800F085
:10301000F7FA00287FF405AFBCE7624800F0ACFC8B
:103020002B78002B7FF4EFAE544800F0A5FC3378EA
:10303000002B7FF4ECAEDFE75A48DFF8949100F004
:103040009BFC2B78002B7FF48CAE4C4800F094FC5A
:103050003378002B7FF491AE494800F08DFC3B782B
:10306000002B7FF496AE474800F086FC99E6444872
:1030700000F090FC5946424800F0C6FA18214A4830
:1030800009F080FA444806F0C7FD01238AF80030B1
:103090007BE63A4800F07EFC5946384800F0B4FA26
:1030A0001821424809F06EFA3B4806F0B5FD0123AD
:1030B0008AF800305DE63B4800F06CFC5146394828
:1030C00000F0A2FA18213A4809F05CFA324806F0FA
:1030D000A3FD012389F800303FE62A4800F05AFC9E
:1030E0005946284800F090FA1821324809F04AFA67
:1030F000294806F091FD01238AF8003051E6192194
:103100002D48DFF8D09009F03DFA234806F084FD01
:103110002A4B2448198800F005FB294B17481988C9
:1031200000F000FB274B1648198800F0FBFA264BED
:103130001448198800F0F6FAD9ED007A1948B8EE6B
:10314000E70A00F0BFFBD9ED007A0C48B8EEE70AB9
:1031500000F0B8FBD9ED007A0948B8EEE70A00F0B4
:10316000B1FB99ED000A0748B8EEC00A00F0AAFBCF
:1031700016490B4806F088FE21E600BFEC13FF1F3E
:103180009815FF1F4C14FF1F0015FF1FE017FF1FAE
:10319000A014FF1F840F01000009FF1FD80E0100BB
:1031A000F016FF1F9C13FF1F180F0100FC0E0100FB
:1031B000E00E0100340F0100500F01004407FF1F13
:1031C0004607FF1F4C07FF1F4E07FF1F6C0F010034
:1031D0009F14FF1F5407FF1F30B53A4B1B788BB06D
:1031E00013B1394B394A1A60394805F079FB384830
:1031F00005F0A8FB002862D040F6B831354801F050
:1032000049FB002841D1FEF773FCFEF7DBF9FFF71D
:1032100053FDFDF733FDFEF745FBFDF75DFD2E4940
:103220002E4806F021FE4FF4FA712D4801F032FBD2
:1032300048B329492B4806F0C9FC2A4806F0ECFCA3
:10324000294B0A22197802A806F0C4FD02A906A893
:1032500006F08EFD254906A806F074FE244B197869
:1032600006F07EFE01461F4806F0B0FC1D4806F041
:10327000D3FC06A806F028FD02A806F025FD0021D3
:10328000174801F0FDFA0BB030BD1A4906A806F048
:103290005BFD069D28460BF0B3FA174B0024196816
:1032A000019403462A460094094805F023FA06A82B
:1032B00006F00AFD2146074801F0E2FAA3E7FDF710
:1032C00087FA99E76C15FF1F0CED00E00400FA0582
:1032D0000C16FF1F8415FF1FF016FF1F3815FF1F68
:1032E000C814FF1F0009FF1FE418FF1FBC060100E0
:1032F000E017FF1FC0060100D418FF1F4379082BF9
:103300001BD8DFE803F0080B0E11141A171A05007A
:1033100003689B6A184703681B69184703685B6961
:10332000184703689B6918470368DB6918470368F7
:103330001B6A184703685B6A18477047027903687D
:10334000002A10B5044614BF022100219B6898474B
:1033500022792368002A14BF032101219B6820469B
:103360009847236BC3EB03139B0001D0013BFDD1B6
:1033700022792368002A204614BF022100219B687D
:10338000BDE81040184700BF144B83FB0123A3EB9B
:10339000E17303EB4303A1EB4303052B1CD8DFE8E8
:1033A00003F0070B0F131703036806219B681847E8
:1033B000036804219B681847036805219B68184728
:1033C000036801219B681847036803219B6818471D
:1033D000036802219B681847704700BFABAAAA2A5E
:1033E00001F007010139062909D8DFE801F00C10C6
:1033F00014181C042000036808219B681847036800
:1034000001219B681847036805219B6818470368DA
:1034100004219B681847036806219B6818470368C6
:1034200002219B68184703680A219B6818470368B4
:1034300009219B68184700BFF8B54679042E0F464E
:1034400007D0082E17D0032E03D0062E0CBF03265C
:103450000226451D002415F8010F47FA04F32979C7
:10346000DB0748BF81F00101013407F0D9FBE3B26B
:103470009E42F0D8F8BD0426EBE700BF10B5044625
:103480000121807907F0E0FBE079012107F0DCFB06
:103490006379042B1FD0082B1DD0032B12D0062BD1
:1034A00010D094F83500FF2814D0012107F0CCFB90
:1034B00094F8341094F8350081F00101BDE8104013
:1034C00007F0AEBB207A012107F0BEFB94F835006F
:1034D000FF28EAD110BD207A012107F0B5FB0121B8
:1034E000607A07F0B1FBDCE7437903B97047FFF777
:1034F000C5BF00BF38B5044607F0ACFBE36AA26A5B
:10350000C31A93420FD323792169054643B9013980
:10351000216123682046DB689847E562012038BDB9
:1035200001312161F5E7002038BD00BF01F0030142
:10353000022903680CD0032907D0012902D00221F7
:103540009B68184703219B68184700219B68184710
:1035500001219B68184700BF427902B97047036890
:1035600010B5044600219B68984794F83500FF2861
:103570000AD0012107F068FB94F8341094F8350064
:10358000BDE8104007F04CBB10BD00BF01F00301C7
:10359000022903680CD0032907D0012902D0052194
:1035A0009B68184706219B68184709219B681847A4
:1035B0000A219B68184700BF0A4B83FB0123A3EB3A
:1035C000E17303EB4303C91A0129034603D002291F
:1035D00001D019B170471B689B6818470368042124
:1035E0009B68184756555555D0ED067AF5EEC07ACA
:1035F000F1EE10FA01DD836B1847C36B184700BF6B
:1036000042690069101A704700230022016141617C
:10361000826103648362704790ED067AD0ED087A88
:103620004369026977EEA77A27EE077A9B1AC7EEFD
:10363000276A002B10B4FDEEE67A17EE901A20D11F
:1036400001295CDD026C002A4ED1002BD0ED117AED
:10365000D4BF002301230371C0ED127A0022BCEE17
:10366000E77ADFED2F6A80ED0A7A0132026486EE96
:10367000A77A0BB9B1EE477A80ED067A5DF8044B74
:103680007047026C24DD002A30DD994228DA047983
:1036900034B3234607EE902AF8EEE76AB7EE007AD5
:1036A000F1EE007AA6EEA77AD0ED127AD0ED136A89
:1036B00077EEA75A85EE876A77EEC67AF4EEE67A59
:1036C000F1EE10FAB8BFF0EE667AC0ED127AC6E7F6
:1036D000002A19DD5C42A14202DA0479002CD8D01C
:1036E0004A420264002AB0D00479D2E7ADD09942B0
:1036F00013DA04792346002CCCD05242C9E70022C9
:10370000836203648261B9E79FD05B42994204DA25
:1037100004792346002CBDD1EFE70379BAE700BF57
:103720000024744942698A4202D04161FFF774BFA4
:10373000704700BFFFFFFFFF10B5B5EEC00AF1EE06
:1037400010FA90ED087A2DED028BB0EE408A48BF5A
:10375000B1EE408AB4EE487AF1EE10FA044602D196
:10376000BDEC028B10BDC7EE086AD0ED107AF8EE02
:10377000E77AB0EE007A67EEA67AC7EE086AFDEE49
:10378000E77A16EE900AC4ED107A09F08FFC41EC4E
:10379000100B09F0F5F90CA3D3E9002351EC100B41
:1037A00009F0D8FC0AA3D3E9002309F0D3FC09F0FF
:1037B00081FF84ED088ABDEC028B60642046BDE881
:1037C0001040FFF729BF00BF000000C0CAA1E53FBD
:1037D0000000000080842E41F8B501278271C3717A
:1037E0009DF818209DF82060DFF86CE00763FF2348
:1037F00000259DF81C7080F83530027200234FF0D0
:103800007E5204464171C0F800E047720361436193
:103810008362C36280F83430036403718372C372BD
:10382000037343738561056245648564C2614262C6
:10383000C26406B131B92046B7EE000AFFF77CFF3B
:103840002046F8BDFFF71AFE2046B7EE000AFFF744
:1038500073FF2046F8BD00BF9C0F0100B5EEC00A03
:10386000F1EE10FAD0ED077A48BFB1EE400AB4EE9F
:10387000670AF1EE10FA1AD09FED0D7A026C80ED16
:10388000070AC7EE007A002AC0ED137A0FDD90ED2B
:10389000067AD0ED087A27EE077A77EEA77AC7EE98
:1038A000276AFDEEE66AC0ED106AFFF7B5BE704705
:1038B00000247449B5EE400AF1EE10FA01D0FFF78A
:1038C0003BBF7047D0ED067AF4EE407AF1EE10FA85
:1038D00018D0D0ED077AB1EE677AB4EEC07AF1EE87
:1038E00010FA10DCF4EEC07AF1EE10FA58BFF0EEE8
:1038F000407AF5EE407AF1EE10FA0BD100238362A4
:10390000C0ED067A7047F0EE477AF5EE407AF1EEB8
:1039100010FAF3D0DFED096A86EEA77AF5EEC07AE9
:10392000B0EEC77AF1EE10FABCEEC77ACCBF012335
:10393000002380ED0A7A0371E2E700BF0024744996
:10394000FF2980F835100FD010B504460846012134
:1039500007F07AF994F8341094F8350081F00101F9
:10396000BDE8104007F05CB9704700BF8272C172B9
:1039700080F83430704700BF426903699A4205D02D
:10398000CCBF012300230371836A0BB90020704769
:10399000FFF7B0BDD0ED067AF5EE407AF1EE10FA01
:1039A0001BD090ED087A016927EEA76A77EE076AC7
:1039B000F5EEC07A86EE267A10B403464469F1EE3D
:1039C00010FABDEEC77A17EE102A02F1010205DDEA
:1039D0000A44A24205D15DF8044B70478A1AA242FC
:1039E000F9D05A615DF8044BFFF716BE90F8392004
:1039F00090F83800101A704790F8383090F8392055
:103A00009A4205D95A1C034480F83820187E704722
:103A10004FF0FF30704700BF90F8383090F83920F1
:103A20009A4286BF1B18187E4FF0FF30704700BFC8
:103A3000704700BF38B50546B0F85E0090B195F804
:103A40005D301446C3F1210294420CD805F13B00CD
:103A50001844224606F0BAFB95F85D30234485F8F9
:103A60005D30204638BD012014462871EEE700BFC6
:103A7000B0F85E306BB190F85D30202B07D8C218DB
:103A8000013380F85D30012082F83B10704701233C
:103A900003710020704700BF0023426980F838306E
:103AA00080F8393080F85C3080F85D3080F85E3026
:103AB00080F85F3006CA30B40D68046943662A4353
:103AC00083660A60A370426990F8613016491468F1
:103AD00013441D7A5B7B01EBC5051B026D6803F483
:103AE000E06343F064032B6090F8623013449D7CE4
:103AF000DB7D01EBC5011B02496803F4E06343F081
:103B000064030B6021685368194205D003692C22B5
:103B10005A70036904229A71036920225A71036959
:103B200080229A7030BC70476812010070B490F81F
:103B3000613045692B441E7A8E420AD0EC1D002369
:103B400014F8012FFF2A04D08A4204D00133052B38
:103B5000F6D170BC704795E806000968114211D093
:103B60000A4901EBC6061D447268002414602C7AD1
:103B70006A7B01EBC401120202F4E062496842F080
:103B800064020A6080F86130E3E700BF6812010058
:103B900070B490F8623045692B449E7C8E420BD005
:103BA00005F11104002314F8012FFF2A04D08A42E2
:103BB00004D00133052BF6D170BC704795E80600A0
:103BC0000968114211D00A4901EBC6061D4472680A
:103BD00000241460AC7CEA7D01EBC401120202F403
:103BE000E062496842F064020A6080F86230E3E70C
:103BF0006812010038B50269D478E4B2E1060546DE
:103C000024D51023D37063061FD504F0040404F0F8
:103C1000FF03002C5AD042496A6E00230B7085F8CE
:103C20005D30002A66D0904795F85D30002B61D05A
:103C30002B69D0229A702B6995F83B201A712B6959
:103C4000012285F85C200222DA7038BD04F04003BE
:103C500003F0FF00002BD8D19379DBB203F06001B1
:103C600060294ED0937803F0100303F0FF01B3B145
:103C700014F0010437D195F85C3095F85D10994245
:103C80004BD9591C2B4485F85C1093F83B301371C9
:103C90002B69D0229A702B690222DA70D5E785F859
:103CA0006010937943F0200393712B6995F83910D4
:103CB0001A791F29D2B2C6D8194800780028C2D074
:103CC0006818013185F839100276BCE72A6985F851
:103CD0003930C02393702B69114A19790121117071
:103CE0000222DA70B1E7C02393702B691A7902229D
:103CF000DA70AAE70122002385F85D2085F83B30C1
:103D000096E703F0DF039371AB6E23B185F83800BB
:103D100095F8390098472A69A4E71471B8E700BFFD
:103D20000C19FF1F2DE9F047374FDFF8E0903B6893
:103D3000026982B006460093DDF8008000214FF44E
:103D40009675D3789B065BD53B680193019BC8EBC6
:103D500003030F2BF5D949B1102BF2D0002090703E
:103D6000336980229A7002B0BDE8F087726996F8D4
:103D7000613013440521187A06F066FF726996F8DF
:103D800061301344012193F812A0504606F05CFF05
:103D900009240021504606F043FF2B46013BFDD18C
:103DA0000121504606F03CFF2B46013BFDD1013C72
:103DB000EFD1706996F8611001444FF416720C7AD5
:103DC0004B7B09EBC4011B02496803F4E06343F039
:103DD00064030B6096F862300344997CDB7D09EB49
:103DE000C1011B02496803F4E06343F064030B6004
:103DF000013AFDD13269D3789B064FF00101A3D47B
:103E0000012002B0BDE8F0879019FF1F6812010081
:103E1000F0B503691222DA700269937803F0200387
:103E200085B004460D46002B5ED0B42393703C4908
:103E300022690B680093009E05E00B680193019BCB
:103E40009B1B042B42D8D37803F0200303F0FF0020
:103E5000002BF2D094F85D30002B31D04FF0000EE3
:103E60004FF0020C04EB0E0393F83B3013710B6818
:103E70000393039F206907E09B060DD50B6802930F
:103E8000029BDB1B052B28D8C378DBB203F00202B0
:103E900002F0FF06002AEFD080F803C02669F3780D
:103EA000DBB2DF0632462DD49F062BD5DB0731D49B
:103EB0000EF1010E94F85D305FFA8EFE7345D1D895
:103EC00000201DBB002384F85E3004E0907023695D
:103ED00080229A70042005B0F0BD8670236980228C
:103EE00004209A7005B0F0BD03F0FF06FFF71AFF3B
:103EF00010B9042005B0F0BD236984F85F60B022DA
:103F00009A7094E78023B3700420DAE7266980234F
:103F1000B370D7E7BEF1000F0CBF02200320F6E715
:103F20009019FF1F2DE9F04106690025122780F83E
:103F3000385080F83950F770D0F810C09CF802E083
:103F40000EF0200E88B00446884615461E46BEF187
:103F5000000F49D0B4238CF802307A4B21691A68DB
:103F60000092DDF800E006E01A6801920198CEEBBD
:103F70000000042830D8C87800F0200000F0FF07C7
:103F80000028F1D04FEA480242F00102D2B20A7191
:103F90001A680292DDF808E0206906E01A680392C8
:103FA0000399CEEB010105292AD8C17801F002015D
:103FB00001F0FF070029F1D04FF0020C80F803C098
:103FC0002269D17811F0110722D12DBB002E0CBF30
:103FD000A0238023937003E08F70236980229A705E
:103FE000384608B0BDE8F0810EF0FF07FFF79AFEF3
:103FF0000028F5D0236984F85F70B0229A70ACE78E
:1040000087702369802238469A7008B0BDE8F08135
:10401000802393700027E3E7012D78D0A0219170D1
:1040200021690A79BE4667464FF0A80C1A680492C7
:10403000049805E01A680592059A121A052A4DD8C7
:10404000CA7802F0020202F0FF08002AF2D0CF7014
:104050002169CA78D2B212F0100F08465DD19206DB
:104060005BD5013DEDB2012D4CD0BEF11F0F3ED905
:104070000A79012DDAD11A680692069D05E01A68C0
:104080000792079A521B052A56D8C27802F00202FC
:1040900002F0FF01002AF2D00223C3702269D37814
:1040A000DBB2D9063BD49B0637D5B023BEF11F0F38
:1040B000937043D8226904EB0E0312791A760EF13D
:1040C000010E5FFA8EFE00BF00BF00BF16B123696C
:1040D00080229A7084F839E0774681E781F802807F
:1040E000236980229A70774684F839E078E704EBF8
:1040F0000E0291F8048082F818800EF1010E5FFA2A
:104100008EFEB6E781F802C021690846ADE7A82116
:1041100091702069BE460279ADE7774660E71021CD
:104120004FF49673D170013BFDD12269937803F06F
:10413000F7037746937053E78170D1E723691B79C2
:10414000C1E700BF9019FF1F0148FFF753BD00BF33
:10415000C807FF1F0148FFF74DBD00BF3408FF1F10
:104160000148FFF747BD00BF5C07FF1F38B50729AF
:10417000224C28BF0721054601702046FFF78CFC22
:104180002B785B0043F0400301252046002184F892
:104190003B3084F85E5084F85D50FFF769FC2046A0
:1041A000FF21FFF765FC20460021FFF761FC204658
:1041B0000021FFF75DFC20460021FFF759FC204657
:1041C0000021FFF755FC20460021FFF751FC204657
:1041D0000021FFF74DFC20460021FFF749FC204657
:1041E0000021FFF745FC20460021FFF741FC29464E
:1041F0002046BDE83840FFF70BBE00BFC807FF1FD1
:104200000021FFF7B3BF00BF70B50278144C520015
:10421000012542F040020646204684F83B2084F8FF
:104220005E5084F85D50FFF723FC29462046FFF7D7
:10423000EFFD31782B462A4641F020012046FFF75A
:1042400071FE94F8383094F839209A4205D9E21872
:104250002B4484F83830107E70BDFF2070BD00BF45
:10426000C807FF1F70B503780C4C5B00164601258C
:1042700043F04003204684F83B3084F85E5084F8D5
:104280005D50FFF7F5FB31462046FFF7F1FB29466D
:104290002046BDE87040FFF7BBBD00BFC807FF1F49
:1042A000072900D9704770B50C460021154606460F
:1042B000FFF7AAFF0122A24045B120EA0202D2B2D2
:1042C00030460021BDE87040FFF7CCBF0243D2B2B8
:1042D00030460021BDE87040FFF7C4BF072900D970
:1042E000704770B515460C4609210646FFF78CFF4E
:1042F000012D0AD00122A24020EA0202D2B23046A9
:104300000921BDE87040FFF7ADBF05FA04F2024392
:10431000D2B230460921BDE87040FFF7A3BF00BF0D
:1043200010B4047F4160022CC26003D05DF8044BDE
:1043300005F044BB83685DF8044B18472DE9F04154
:104340000468E56815F0807F794D256052D1DF075C
:1043500040F1B380002900F0E3800D78012B18BFF5
:1043600045F000456563013190F82C8003F1FF3C76
:1043700048EA0828BCF1000F00F0A88021B14D7870
:1043800011F8028B45EA082845682E7ABCF1020F25
:1043900006F1FF364FEA06360CBF48F0805548F06C
:1043A0001045B6B26563ACF1020C08E00AB11470B6
:1043B0000132013B05F47045B54216D90468E56A3F
:1043C00015F0F00FF6D0A46B13F0010F17464FEA6B
:1043D000242EEBD11AB107F802EB54703A4605F4DB
:1043E0007045B542A3F10203E8D8BCF1000F6DD0CF
:1043F0000468C3E7DD074CD5002900F089800D78FB
:10440000012B18BF45F000456563013103F1FF3E04
:1044100090F82CC0BEF1000F41D029B191F801C035
:104420000D78023145EA0C2C45682E7ABEF1020F58
:1044300006F1FF364FEA06360CBF4CF080554CF0C3
:104440001045B6B26563AEF1020E08E00AB1147011
:104450000132013B05F47045B54215D90468E56A9F
:1044600015F0F00FF6D013F0010F1746A46BEDD145
:1044700022B107F8024B241254703A4605F47045F5
:10448000B542A3F10203E9D8BEF1000F07D00468DA
:10449000C3E79E4690F82CC0BEF1000FBDD11BB300
:1044A0000468E16A11F0F00FFBD0A16BDC071DD5A9
:1044B0000AB111700132013BF1E790F82C809C4663
:1044C00048EA0828BCF1000F7FF458AF63B10468D4
:1044D000E16A11F0F00FFBD0DE07A16B0FD50AB136
:1044E00011700132013BF1E7BDE8F0812AB11446B9
:1044F0000D1204F8021B55702246023BCFE72AB189
:1045000014460D1204F8025B51702246023BDDE7AF
:1045100090F82C50012B18BF45F00045656375E7F6
:1045200090F82C50012B18BF45F0004565631BE740
:1045300000041F80F0B4464B464A986B5C6B0179CF
:104540001170454922790A701A6B00790870002AA7
:1045500046D05968C9688A423ED82168CC8B240469
:1045600002F1FF3065D4C0F30E00C883C88B80B25F
:10457000C882996B0968C88B000452D4C2F30E003C
:10458000C883C88B002480B212F1FF32C88218BFE2
:1045900001221C63596B2E4809680D6800F12C0438
:1045A000A54236D00068C46814F0804F0C680D68CE
:1045B00015BF248824780235013544F000440D608D
:1045C0004463996B254B09791970214912B14A6BE3
:1045D00012791A70F0BC7047521A1A630122D9E797
:1045E000D86B196805681E4C0A63CC62CC682D68CC
:1045F0001C4E24F080440327B542CC6083F82D7014
:104600001FD1037F4260022BC2601ED0F0BC05F0B8
:10461000D5B9016890F82C00CC6840F000404863A0
:10462000CFE7CC8BC2F3080004F47E442043C88358
:10463000A7E7CC8BC0F3080004F47E442043C88372
:1046400094E72B461146F0BC18478368F0BC184726
:10465000A008FF1F1F8000401C8000401B800040FE
:1046600000000FFF2143000090E80C00F0B41C682C
:1046700059682568164F174E29432160164D174972
:104680001760D66015611160417A154A5C180C31CB
:1046900094F82C4053F8215002EBC40149680D6096
:1046A000017A5C1803EB8101247ECD6902EBC40121
:1046B00049680D60817A581803EB810390F8400037
:1046C000596C02EBC002F0BC53681960704700BF20
:1046D00001401F00011000380110007800001F8009
:1046E00068120100284A43689A4270B415D0827A51
:1046F0001A4492F8402091420DD093F840408C42E9
:104700003FD093F841408C421DD093F842408C42F8
:1047100008BF022118D070BC70470D292BD00E297C
:1047200009D01B29E3D1194C227822F0300242F043
:1047300020022270DBE7154C227822F0300242F092
:1047400010022270D3E701211D685C682D682542A4
:104750000FD00F4C04EBC202002655685A182E6089
:1047600092F8402004EBC20403EB810362685B6CA7
:1047700013608172CFE7054C227822F0300222705C
:10478000B5E70021E0E700BF4C1001008D19FF1FC5
:10479000681201000BB1FFF7D1BD7047704700BF31
:1047A000F8B5054610200E46174605F041FE314685
:1047B00004463A4608F080F92C6020460121BDE805
:1047C000F84008F09FB900BF70B584B000689DF84C
:1047D00020509DF824409DF8286042EA053242EAC4
:1047E000443242EAC3331CB246EA4101002341F09D
:1047F000400501930093C4F307260123032203A974
:104800008DF80E408DF80D608DF80C5008F08AF987
:1048100004B070BD034B82B01B680193019802B0D5
:10482000704700BF9019FF1F054B06481B6882B0F8
:104830000193019BA0FB0330800902B0704700BFC9
:104840009019FF1FD34D6210012910B504460ED0F8
:10485000022909D0074B836098470022012384E88E
:1048600005002373204610BD034B8360F4E7034B20
:104870008360F1E7154800002948000055AC0000AE
:1048800038B5836804460D469847012384E8210023
:10489000237338BD70B50446007B66680D4618B1B9
:1048A000A36898472368C01A304485428CBF002013
:1048B000012070BD38B50D4604460021284606F09B
:1048C000C3F90123084A237052F835206260234659
:1048D00000222274A274627403F80F2F083403F8C4
:1048E000012DA342FBD138BD68120100426872B6A7
:1048F000002382F8803262B67C20782102E010F03A
:10490000FF0024D00B46013BFDD192F80032013864
:10491000002BF4D072B6012382F8003182F8803285
:1049200062B64FF4E143013BFDD172B6002141F282
:10493000680382F88012013BFDD192F80002B0FAC0
:1049400080F0400962B646F21803013BFDD1704782
:10495000CA07436811D472B6012183F8001140F6EA
:104960003C7283F88012013AFDD183F8801062B660
:104970004FF49673013BFDD1704772B6012183F865
:1049800000114FF4167283F88012013AFDD183F8BA
:10499000801062B640F6E443013BFDD1704700BF92
:1049A000436872B6012183F88012B42283F80011A3
:1049B000013AFDD100214FF4167283F88012013ABA
:1049C000FDD193F80002C0B262B640F66C43013BE1
:1049D000FDD170472DE9F04106460F469046082567
:1049E0000124274214BF012100213046FFF7B0FF08
:1049F0006400013DE4B2F4D1B8F1000F08D172B601
:104A0000736883F880827368012283F8002162B69C
:104A1000BDE8F081F8B50746082400260125384690
:104A2000FFF7BEFF6B0000B12E43013CDDB2F6D1B3
:104A30003046F8BD70B500220D4655210646FFF7F9
:104A4000C9FF6C1E073514F8011F00223046FFF71E
:104A5000C1FFAC42F7D170BD0022CC21FFF7BABF35
:104A60000346002202748274427403F80F2F083048
:104A700003F8012D8342FBD1704700BF2DE9F047B9
:104A8000857C04462DB1002020746074A074BDE8BC
:104A9000F08789461646FFF729FF0028F3D0002E3D
:104AA00066D02A46F0212046FFF794FF01254FF0FB
:104AB00000082E46C24619E0874229D004EB0803BD
:104AC0001A7A22EA05021A72394620466D00FFF76B
:104AD0003FFF013615F0FF05F6B204D108F10108D9
:104AE0005FFA88F80125B8F1070F28D82046FFF7AC
:104AF00057FF07462046FFF753FF012FDCD101285F
:104B00001DD004EB08031A7A2A431A720127DBE747
:104B1000237C9E420DD204EB08031A7A154214BF7F
:104B200001270027002FEED1082E00D86674B24668
:104B3000C6E70CBF0127002704EB0803F2E7402E6D
:104B4000A1D984F810A0BAF1000F17D0227A002A58
:104B500099D004F1080309F1FF390F3401E013F88B
:104B6000012F09F8012F9C42F9D10120BDE8F087FF
:104B70003246EC212046FFF72DFF97E70123A3746F
:104B8000E4E700BFA9B130B44D1EEDB20A4C0544B4
:104B9000421E002012F8013F584000F00F0304EBC2
:104BA0001010E15C037C954281EA0300F2D130BC35
:104BB00070470846704700BFE0100100807801216F
:104BC00006F02EB830B4002201240925C570047106
:104BD000447181608271C27102708261427030BC26
:104BE000704700BF807970472DE9F0410746806823
:104BF00088461546FFF734FF002401224146B86875
:104C0000FFF73CFFE3B2064628B19D4207D00134CE
:104C1000E3B29D42F1D200263046BDE8F081072183
:104C20004046FFF7AFFF98F807308342EFD1F3E734
:104C300070B5054680680C461646FFF757FE00B96A
:104C400070BD2146A868FFF7F5FE0022BE21A868C6
:104C5000FFF7C0FE741E0836A868FFF7DBFE04F8F5
:104C6000010FB442F8D1A868FFF740FEA0F101009F
:104C7000B0FA80F0400970BD10B51446FFF7D8FFB8
:104C800088B1631E04F1080213F8010F10B99342B2
:104C9000FAD110BD08212046FFF774FF237A181AB5
:104CA000B0FA80F0400910BD00B585B001AAFFF749
:104CB000E3FF48B19DF808303F2B0CD00FD95F2B94
:104CC00005D07F2B11D10C2005B05DF804FB0B2023
:104CD00005B05DF804FB0A2005B05DF804FB1F2B4E
:104CE00003D1092005B05DF804FB002005B05DF894
:104CF00004FB00BF70B504460D4680681646FFF7FA
:104D0000F5FD2946A068FFF795FEA06800224E2118
:104D1000FFF760FEB178A0680022FFF75BFEF17834
:104D2000A0680022FFF756FE2B78102B04D03179B3
:104D3000A0680022FFF74EFEA068FFF7D7FD2946C6
:104D4000A068FFF777FE2278A0684821FFF742FEAF
:104D5000142005F0A3FF237833B163788BB90A20C0
:104D600005F09CFF637823B9A068BDE87040FFF7A9
:104D7000BDBD2046FFF722FFA068BDE87040FFF7E9
:104D8000B5BD0021A07805F04BFF0A2005F086FF95
:104D90006378002BE8D0ECE738B504460D46806810
:104DA000FFF7A4FD2946A068FFF744FE0022B421C6
:104DB000A068FFF70FFEA068FFF7F2FD0546A068A8
:104DC000FFF794FDB5FA85F0400938BD30B50446CB
:104DD00083B08068FFF744FE0023A371E3710125CF
:104DE00006E06846FFF7CEFE9DF80730834209D003
:104DF00069460122A068FFF741FE07210028F0D193
:104E000003B030BD2378002B00F08A809DF800307D
:104E1000102B6946204677D0FFF746FFE178A2794C
:104E20009DF80030884238BF08460132103BE070E0
:104E3000A271322BDCD801A252F823F0194F0000E6
:104E4000F14D0000F14D0000F14D0000F14D00006A
:104E5000F14D0000F14D0000F14D0000F14D00005A
:104E6000F14D0000F14D0000F14D0000F14D00004A
:104E7000F14D0000F14D0000F14D0000F14D00003A
:104E8000F14D0000194F0000F14D0000F14D000000
:104E9000F14D0000F14D0000F14D0000194F0000F0
:104EA000F14D0000F14D0000F14D0000F14D00000A
:104EB000F14D0000F14D0000F14D0000F14D0000FA
:104EC000F14D0000F14D0000F14D0000F14D0000EA
:104ED000F14D0000F14D0000F14D0000F14D0000DA
:104EE000F14D0000F14D0000194F0000F14D0000A0
:104EF000F14D0000F14D0000F14D0000F14D0000BA
:104F0000F14D0000194F0000E278A3790C2A38BF58
:104F10000C220133E270A371E3790133E37167E797
:104F200069462046FFF738FF00283FF46FAF257031
:104F30006CE700BF2DE9F041082A1E4686B0044602
:104F40000F460B7811DD0C2AA8BF0C22102B15463A
:104F50004ED039462046FFF7A7FEA84209D14FF0B0
:104F60000108404606B0BDE8F081102B4FF009055E
:104F7000EFD103AA39462046FFF77EFE804600287F
:104F8000EFD03B78102BEAD00B2D3CD00C2D31D03C
:104F90000A2D3CD01F238DF8103003AA3946204635
:104FA000FFF7A8FEE378AB4228D3002ED7D1AB425F
:104FB000D5D9A379E570002BD3D035460BE0FFF7A8
:104FC00073FEE278A379904205F1010538BF1046DF
:104FD000AB42E070C5DD01A9EAB22046FFF704FE4E
:104FE0009DF80430102B01A92046E8D10C20E8E7F9
:104FF0000C20B2E77F238DF81030CEE74046E570F5
:1050000006B0BDE8F0815F238DF81030C5E73F237F
:105010008DF81030C1E700BF08291ADD0C29A8BFA0
:105020000C218379C170B3B130B5044683B000253B
:10503000EAB269462046FFF7D7FD0123E2786946C8
:105040002046FFF777FFA3790135AB42F0DC03B0D0
:1050500030BD0921E5E770470939C9B2F0B5022929
:105060009CBF174B33F91150437983B0044688BF76
:1050700040F2EE2593B1037883B9124E3368009362
:10508000009FA068FFF78CFC012805D033680193CE
:10509000019B5B1BBB42F4D303B0F0BD637853B9F3
:1050A000284605F0FBFD6378002BF5D02046FFF77E
:1050B00085FD03B0F0BD0021A07805F0B1FDEFE75C
:1050C000001101009019FF1F10B504468068FFF71A
:1050D0000DFCA068FFF7C0FC2278A0684421FFF710
:1050E00079FC237903B910BDE1782046BDE8104072
:1050F000FFF7B2BF10B584B001AA0C46FFF7BCFDA4
:10510000E0B19DF804009DF805202378C00040EA36
:10511000C220102B00B201D004B010BD9DF80B20AE
:105120009DF80A30C000D31A20F07F00DB0193FB0A
:10513000F2F3203B184400B204B010BD0048EBE786
:1051400080E4FFFF10B582B00A4669460446FFF7C7
:105150004BFD18B99FED080A02B010BD6946204604
:10516000FFF7C8FF10F5DC5FF4DD00EE100ABAEEC1
:10517000EC0A02B010BD00BF0000FEC2084604F0F9
:10518000ABBF00BF08B50846114604F0BDFF0120C3
:1051900008BD00BF014B64221A6070471019FF1F41
:1051A0002DE9F041374CE57A884616461F46002D1A
:1051B00026D072B6E27AD507134606D53249E3689F
:1051C0000D682B40E3610B601346910706D52F490C
:1051D00022690D68E37A2A4022620A605A0706D5DE
:1051E0002B4962690D68E37A2A4062620A601D07F2
:1051F00005D5284AA36911680B40A362136062B603
:1052000022682549D3688B4206D0244B1360244D75
:10521000244BD1601561136001460622092002F07B
:105220001FFA08F1040104220F2002F019FA391DB7
:105230000422012002F014FA069B0422991805208A
:1052400002F00EFAE37A0F4A8BB1D80702D516495D
:10525000D2690A60990703D5144A216AE37A11607A
:105260005A0709D41B0702D5114BA26A1A60114BC9
:1052700072685A60BDE8F0810F4A616AE37A116092
:10528000F0E700BFA008FF1F80E100E084E100E03C
:1052900088E100E08CE100E0000002B801403F003E
:1052A000000002F800003F8000E100E004E100E0BF
:1052B0000CE100E01419FF1F08E100E030B58BB0ED
:1052C00049685C685568104B0391FF2200210794E0
:1052D0000595044602930493069308938DF82420C1
:1052E0008DF825208DF826208DF8271002F05AFD24
:1052F00038B108AB0093204606AB04AA02A9FFF719
:105300004FFF0BB030BD00BF4C12010070B588B02C
:105310004B68019301218DF807105668074C019DD9
:10532000039304AA06AB02A9059607950294049478
:105330000694FFF7C3FF08B070BD00BF4C12010018
:1053400010B586B04A68019201238DF80730019CA0
:10535000054B039202A904AA059402930493FFF754
:10536000D5FF06B010BD00BF4C120100014B1870F4
:10537000704700BFE208FF1F08B502F01DFD0128BD
:1053800003D002280CBF0220002008BD024B034AB4
:105390001A6000225A6070471419FF1F4C12010056
:1053A000407B07288CBF00200120704781F001005E
:1053B000704700BF08467047C181704710B582B082
:1053C00002AB026803F8011D546819460122A04788
:1053D00002B010BD437B487B984201D0002070474B
:1053E00007288CBF00200120704700BF08B5036864
:1053F000074ADB6B934205D1FFF7ECFF80F0010019
:10540000C0B208BD984780F00100C0B208BD00BF1F
:10541000D5530000437B072B01D90020704710B5FE
:105420000446184601F030F8182803D91C2809D082
:10543000012010BD074B23FA00F000F0010080F0BE
:10544000010010BD236820461B699847003018BF33
:10545000012010BD01001001F0B5054691B0407B60
:10546000204CDFF888E0059400234FF47A7C069303
:105470008DF824308DF82C300D93029307284FF0CF
:1054800008030E4617460C940194CDF828C0CDF8B9
:1054900020E08DF83C301BD9134B03945B680493D8
:1054A00003A905A802F09CFD41F2883305A8314606
:1054B00001AA02F04BFF0B4B40B12A68029ED4694F
:1054C00003933A4603A928460496A04711B0F0BDBD
:1054D00000F0DAFF10B908236B73DDE7687B01F099
:1054E0005BF9F8E74C1201001419FF1F6C11010061
:1054F000407B072801D90020704708B501F0ACFDBA
:1055000008BD00BF10B504460BE000F0BDFF172832
:1055100001D01C2809D1607B01F09EFDB0F5006F21
:1055200003D2637B072B1846EFD910BD38B5437BF8
:10553000072B01D9002038BD1546044692B2184603
:1055400001F0CEFB10B90123237138BD284638BDC8
:10555000407B072801D90020704708B501F0AEFA5A
:1055600008BD00BF407B072801D90020704712B258
:1055700001F084B900B583B001220DF10701407B31
:1055800001F07CF90028CCBF9DF807004FF0FF30F8
:1055900003B05DF804FB00BF427B072A09D803680B
:1055A00010B51B690446984730B1607B01F008FBD9
:1055B00010BD4FF0FF3070474FF0FF3010BD00BFFF
:1055C000F0B50446407B072883B00D4617460DD939
:1055D0006B68013B033306D80021212000F01AFC40
:1055E0000728607308D9002003B0F0BD00F04CFF1D
:1055F00010BB08236373EBE7144E291D3A4601F0F4
:1056000035F833680093009D0CE01C2B12D0002B62
:10561000E9D033680193019BE2895B1B93420FD869
:1056200005F03CFB607B00F02FFF172803464FF08E
:105630000100EAD10120D7E7607B01F0ADF8D8E79F
:10564000607B00F0A1FF08236373CCE79019FF1F74
:10565000437B072B00D9704770B5124E82B00446C9
:10566000184601F099F833680093009D09E0012085
:1056700005F014FB33680193019BE2895B1B9342A5
:1056800008D2607B00F000FF0028F0D1082363738C
:1056900002B070BD607B00F077FF0823637302B037
:1056A00070BD00BF9019FF1FF0B54B7B072B83B077
:1056B000044606D93B4B036000234360204603B0F9
:1056C000F0BD394DEB7A002B26D072B6EA7AD607B8
:1056D000134606D53548EB6806683340EB61036036
:1056E0001346900706D532482A690668EB7A32409D
:1056F0002A6202605A0706D52E486A690668EB7A64
:1057000032406A6202601F0705D52B4AAB691068F8
:105710000340AB62136062B62B68284AD868904297
:1057200006D0274F274E28481F60DA601E61186098
:10573000264A4B7B10781B0203EB002004220C301E
:105740000DEB020180B202F059F8EB7A16491A46C5
:10575000B3B1DE0703D51E4AC96911601A4698071E
:1057600003D51C4B296AEA7A1960510703D51A4BF5
:10577000696AEA7A1960130702D5184BAA6A1A6097
:105780009DF80400074D9DF805109DF806209DF832
:1057900007302071204625606171A271E37103B06A
:1057A000F0BD00BF4C120100A008FF1F80E100E027
:1057B00084E100E088E100E08CE100E0000002B854
:1057C00001403F00000002F800003F805D19FF1F0C
:1057D00000E100E004E100E008E100E00CE100E0AD
:1057E000437B072B01D90020704770B5334CE37A17
:1057F00082B0002B26D072B6E27AD507134606D5C2
:105800002F49E3680D682B40E3610B601346910755
:1058100006D52C4922690D68E37A2A4022620A6083
:105820005A0706D5284962690D68E37A2A40626200
:105830000A601E0705D5254AA36911680B40A362BB
:10584000136062B62368224AD968914206D0214E7D
:10585000214D22491E60DA601D611960204A437B98
:1058600010781B0203EB00200430022201A980B251
:1058700001F0C4FF9DF805309DF80400E27A0F495D
:1058800043EA00201346B2B1D50703D5154BC969C9
:1058900019601346910703D5134A216AE37A116010
:1058A0005A0703D5114A616AE37A11601B0702D5D2
:1058B0000F4BA26A1A6002B070BD00BFA008FF1FA4
:1058C00080E100E084E100E088E100E08CE100E0BC
:1058D000000002B801403F00000002F800003F80D5
:1058E0005D19FF1F00E100E004E100E008E100E0D5
:1058F0000CE100E0437B072B01D90020704770B515
:10590000334CE37A82B0002B26D072B6E27AD50708
:10591000134606D52F49E3680D682B40E3610B6001
:105920001346910706D52C4922690D68E37A2A406F
:1059300022620A605A0706D5284962690D68E37A2F
:105940002A4062620A601E0705D5254AA3691168CC
:105950000B40A362136062B62368224AD968914261
:1059600006D0214E214D22491E60DA601D6119606A
:10597000204A437B10781B0203EB002010300222E8
:1059800001A980B201F03AFF9DF805309DF80400AE
:10599000E27A0F4943EA00201346B2B1D50703D596
:1059A000154BC96919601346910703D5134A216A3B
:1059B000E37A11605A0703D5114A616AE37A1160EC
:1059C0001B0702D50F4BA26A1A6002B070BD00BF60
:1059D000A008FF1F80E100E084E100E088E100E032
:1059E0008CE100E0000002B801403F00000002F836
:1059F00000003F805D19FF1F00E100E004E100E0CE
:105A000008E100E00CE100E003689B6B184700BF71
:105A10004969024A41600260704700BF4C120100B0
:105A2000008B7047C0897047C08B704710B582B03B
:105A300002AB026803F8011D546819460122A04711
:105A400002B010BD704700BF037F072B00D970471D
:105A500010B50446184600F097FD0823237710BDC3
:105A600038B50446007F07280D460DD92946022087
:105A700000F0D0F90728207704D80023E581E383DC
:105A8000012038BD002038BD00F07EFDEEE700BFEC
:105A9000F0B51B4B1B4C5B6891B04FF47A7E0493BE
:105AA00000230D46069303A98DF824308DF82C3081
:105AB0000D9302930646082305A81746124ACDF80F
:105AC00028E008928DF83C3005940C9401940394DE
:105AD00002F086FA294605A841F2883301AA02F0AD
